S01400004156525F53656374696F6E732E7372656380
S11300000C942A000C9474020C9447000C9447003E
S11300100C9447000C9447000C9447000C94470040
S11300200C9447000C9447000C9447000C94470030
S11300300C9447000C9447000C9447000C94470020
S11300400C9447000C9447000C9447000C94470010
S11300500C94470011241FBECFE5D8E0DEBFCDBF0E
S113006010E0A0E6B0E0E0E6F7E002C005900D92F3
S1130070A43CB107D9F720E0A4ECB0E001C01D9284
S1130080A63CB207E1F70E9443020C94AE030C9421
S11300900000CF93C82F40E067E083E00E94A202F3
S11300A040E066E083E00E94A20241E065E083E074
S11300B00E94A2026C2F82E00E949E0383EC99E0CE
S11300C00197F1F700C0000040E065E083E00E9482
S11300D0A20281EE94E00197F1F700C00000CF91F5
S11300E008958BE49DE10197F1F700C0000082E0E0
S11300F00E94490085EA9EE00197F1F700C00000E4
S113010088E30E94490089EF90E00197F1F700C06D
S113011000008CE00E94490089EF90E00197F1F71C
S113012000C0000081E00E94490089EF90E001973F
S1130130F1F700C0000086E00E94490083EF91E0DF
S11301400197F1F700C000000895CF93C82F41E054
S113015067E083E00E94A20240E066E083E00E9440
S1130160A2026C2F82E00E949E0341E065E083E0DE
S11301700E94A20283EC99E00197F1F700C000000D
S113018040E065E083E00E94A202CF9108950F93BE
S11301901F93CF93FC018081882389F08F01C0E0F5
S11301A0CF5F0E94A50083EF91E00197F1F700C0B3
S11301B00000F801EC0FF11D80818111F1CFCF9186
S11301C01F910F910895603170F4882319F08130E4
S11301D031F0089580E8860F0E944900089580EC6C
S11301E0860F0E944900089581E00E944900089505
S11301F0EF92FF920F931F93CF93DF93F82EE62E87
S113020080E40E944900C6E7D0E006EB10E0899143
S11302100E94A5000C171D07D1F780E80E94490031
S11302206E2D8F2D0E94E30080E00E94A50081EED8
S113023094E00197F1F700C00000DF91CF911F9186
S11302400F91FF90EF900895EF92FF920F931F93F9
S1130250CF93DF93F82EE62E80E40E944900C6E790
S1130260D0E006EB10E089910E94A5000C171D0751
S1130270D1F780E80E9449006E2D8F2D0E94E30083
S113028081E00E94A50081EE94E00197F1F700C09F
S11302900000DF91CF911F910F91FF90EF9008958F
S11302A086EB90E00E94C70065E070E080E090E09B
S11302B00E94F80089E090E09093C5008093C40008
S11302C08091600090916100019749F02DC02091C8
S11302D06000309161002130310519F025C089E0BA
S11302E090E0880F991FFC01EE59FF4F608180E078
S11302F00E949E0341E060E081E00E94A2022FE39D
S11303008DE093E0215080409040E1F700C0000070
S11303108091C4009091C50001979093C50080938B
S1130320C400181619069CF282E090E090936100D4
S1130330809360000E94F40040E060E081E00E944D
S1130340A20208958BEB90E00E94C70065E070E084
S113035080E090E00E94F80083E090E09093C50074
S11303608093C4008091600090916100029749F0ED
S11303702DC020916000309161002230310519F0C8
S113038025C083E090E0880F991FFC01EE59FF4FD0
S1130390608180E00E949E0341E061E081E00E9470
S11303A0A2022FE38DE093E0215080409040E1F7DA
S11303B000C000008091C4009091C5000197909303
S11303C0C5008093C400181619069CF283E090E0DF
S11303D090936100809360000E94F40040E061E02B
S11303E081E00E94A202089581EC90E00E94C7007F
S11303F089E090E09093C5008093C40080916000F0
S113040090916100039749F030C0209160003091D1
S113041061002330310519F028C089E090E0880F8D
S1130420991FFC01EE59FF4F608180E00E949E03FA
S113043041E062E081E00E94A20265E070E080E0B9
S113044090E00E94240165E070E080E090E00E946A
S1130450F8008091C4009091C50001979093C50065
S11304608093C4001816190684F281E090E09093FA
S11304706100809360000E94F40040E062E081E04B
S11304800E94A20208956FEF80E00E948E036FEF36
S113049081E00E948E0341E067E082E00E9418033D
S11304A041E066E082E00E94180341E065E082E0FA
S11304B00E9418036FEF83E00E948E030E94710074
S11304C08BB780648BBF85B7826085BF78940E94A8
S11304D0F40060E080E00E94E3000E9450010E946A
S11304E0A2010E94F401F9CF1F920F920FB60F924E
S11304F011248F939F9380916000909161008230CA
S1130500910561F08330910581F00197A1F482E0B7
S113051090E090936100809360000DC083E090E0D0
S1130520909361008093600006C081E090E0909316
S11305306100809360009F918F910F900FBE0F9088
S11305401F901895843008F072C0683008F06FC0AE
S11305504130A1F5813089F028F08230C9F0833030
S113056011F108952BB381E090E002C0880F991F28
S11305706A95E2F7822B8BBB089528B381E090E063
S113058002C0880F991F6A95E2F7822B88BB0895F1
S113059025B381E090E002C0880F991F6A95E2F7C5
S11305A0822B85BB089522B381E090E002C0880FBE
S11305B0991F6A95E2F7822B82BB0895411137C0D7
S11305C0813091F028F08230D9F0833029F10895F8
S11305D02BB381E090E002C0880F991F6A95E2F77F
S11305E0809582238BBB089528B381E090E002C0FC
S11305F0880F991F6A95E2F78095822388BB089536
S113060025B381E090E002C0880F991F6A95E2F754
S11306108095822385BB089522B381E090E002C0D7
S1130620880F991F6A95E2F78095822382BB08950B
S1130630843008F072C0683008F06FC04130A1F512
S1130640813089F028F08230C9F0833011F10895A7
S11306502AB381E090E002C0880F991F6A95E2F7FF
S1130660822B8ABB089527B381E090E002C0880FF3
S1130670991F6A95E2F7822B87BB089524B381E022
S113068090E002C0880F991F6A95E2F7822B84BB21
S1130690089521B381E090E002C0880F991F6A9504
S11306A0E2F7822B81BB0895411137C0813091F06C
S11306B028F08230D9F0833029F108952AB381E0FB
S11306C090E002C0880F991F6A95E2F78095822313
S11306D08ABB089527B381E090E002C0880F991F78
S11306E06A95E2F78095822387BB089524B381E05D
S11306F090E002C0880F991F6A95E2F780958223E3
S113070084BB089521B381E090E002C0880F991F53
S11307106A95E2F78095822381BB0895813041F088
S113072028F0823039F0833039F008956ABB089597
S113073067BB089564BB089561BB0895813041F09F
S113074028F0823039F0833039F008956BBB089576
S113075068BB089565BB089562BB0895F894FFCF04
S113076003003F0030005B004F0066006D007D0019
S113077007007F006F000E110E041F040A110E11F2
S11307800E041F041C110000000000000000000003
S11307900000000000000000000000000000000055
S11307A00000000000000000000000000000000045
S11307B000000000000053544F50005265616479FA
S10707C000476F007B
S9030000FC
