S01400004156525F53656374696F6E732E7372656380
S11300000C942A000C9434000C9434000C943400A6
S11300100C9434000C9434000C9434000C9434008C
S11300200C9434000C9434000C9434000C9434007C
S11300300C9434000C9434000C9434000C9434006C
S11300400C9434000C9434000C9434000C9434005C
S11300500C94340011241FBECFE5D8E0DEBFCDBF21
S11300600E9436000C94A0000C94000041E065E06E
S113007080E00E947C0040E065E080E00E9458003F
S11300802FE986E891E0215080409040E1F700C0DC
S1130090000041E065E080E00E9458002FE986E816
S11300A091E0215080409040E1F700C00000E3CF90
S11300B0843008F56830F8F4413071F4823041F04E
S11300C0833041F0813011F0D99A0895C19A08958E
S11300D0A99A0895919A089541110DC0823041F072
S11300E0833041F0813011F0D8980895C098089574
S11300F0A898089590980895843008F56830F8F425
S1130100413071F4823041F0833041F0813011F09C
S1130110D19A0895B99A0895A19A0895899A08954B
S113012041110DC0823041F0833041F0813011F033
S1130130D0980895B8980895A09808958898089537
S1070140F894FFCF5D
S9030000FC
